:020000040000FA
:0400000052EF00F0CB
:10000800FACF2AF0FBCF2BF0E1CF2CF0E2CF2DF086
:10001800D9CF2EF0DACF2FF0F3CF30F0F4CF31F084
:100028001AEEF8F0F0B6F0A003D04CEC54F025D05E
:10003800F0B8F0A203D048EC54F01FD0F2B6F2A00A
:1000480003D037EC54F019D0F2AC17D09DBC9EAC5D
:1000580003D078EC54F011D07DB27EA203D0E1EC4D
:100068004FF00BD0A0B2A1A203D0F8EC4FF005D00E
:100078009DB09EA002D029EC53F031C0F4FF30C0EF
:10008800F3FF2FC0DAFF2EC0D9FF2DC0E2FF2CC02E
:10009800E1FF2BC0FBFF2AC0FAFF110018EED6F0D3
:1000A800FAEF3BF056EC54F0020108B1B9EF05F055
:1000B800DAC1D9FFDBC1DAFFDF500001E26FE239B4
:1000C800E832070BE806D8A4CFD002012251D8A401
:1000D800CBD00101DC0500011FD00101DC51DA257C
:1000E8000001DB6F000E0101DB210001DC6FE8512C
:1000F800DB5D7E6FDC51D8A0DC057F6F470E806F1B
:10010800020E816F17EC4EF0100E0001E86503D067
:10011800100EE85F02D0000EE86FE851D8A4DDD7D2
:10012800470EC86F020EC96FDAC1CAF0DBC1CBF047
:100138000101DC51FC0F0001CC6F8AEC47F0C8C00C
:10014800EBF0C9C0ECF0CAC0EDF0CBC0EEF0DAC1FC
:100158006BF0DBC16CF0DCC16DF0C9EC4AF06BC030
:10016800E3F06CC0E4F06DC0E5F06EC0E6F00001AD
:10017800EB51E3190AE1EC51E41907E1ED51E519F6
:1001880004E1EE51E619D8B411D0020107510F0B62
:10019800050AD8B408D007510F0B030AD8A41200D7
:1001A800F651D8B4120025EC50F0120002010751A4
:1001B8000F0B030AD8A403D0E851D5EC51F0DAC1EB
:1001C800EFF0DBC1F0F0000120EE07F0EF51D92687
:1001D800F051DA22DECF23F2DECF24F2DECF25F291
:1001E800DECF26F220EE0CF0EF51D926F051DA22BC
:1001F800DF500F0BA1EC4CF0000120EE0BF0EF519B
:10020800D926F051DA22DF38070B606F20EE0BF0A9
:10021800EF51D926F051DA22DF500F0B8DEC52F056
:10022800EFC09EF0F0C09FF00101DC5118EC20F007
:10023800EFC092F0F0C093F011EC42F0000EE66EC1
:1002480058EC2DF0000E02010B6F000E0C6F000E23
:100258000D6F000E0E6F000E0F6F000E106F000E68
:10026800116F000E126F12000001E239E832070B1D
:10027800030AD8B407D0E239E832070B050AD8A434
:10028800B6EF05F0000E0201AC6FDAC1F2F0DBC187
:10029800F3F0020E1719D8A4AAD1000120EE01F03C
:1002A800F251D926F351DA2202016751DE1809E129
:1002B8006851DE1806E16951DE1803E16A51DE185B
:1002C800D8A495D109A593D1F2C060F0F3C061F02C
:1002D80098EC43F00009D8A408D002010751F00BAC
:1002E8000909076FD5EC43F01200000120EE06F073
:1002F800F251D926F351DA22DECFDBF0DDCFDCF084
:10030800DBC06BF0DCC06CF06D6B6E6B0101DC5117
:10031800FC0F00016F6F490E706F010E716F010EB7
:10032800C7EC3AF0C70E0001606F070E616F5F0EF1
:10033800626F010E636F000E656F100E646FECEC58
:1003480047F0D70E0001606F070E616FDAC162F0E7
:10035800DBC163F0FC0E0101DC250001646F656BF5
:10036800FF0E6523ECEC47F06B0E0001BA6F020E2E
:10037800BB6F5F0EBC6F010EBD6FC70EBE6F070E61
:10038800BF6F0101DC510C0F0001C06FADEC0DF027
:10039800EB0E0001606F000E616F5F0E626F010E61
:1003A800636F000E656F040E646FECEC47F0DAC102
:1003B8006BF0DBC16CF0DCC16DF0C9EC4AF06BC0CE
:1003C800E3F06CC0E4F06DC0E5F06EC0E6F000014B
:1003D800E351EB1982E1E451EC1908E1E551ED191B
:1003E80005E1E651EE19D8A478D701D076D720EEEA
:1003F80006F0F251D926F351DA2202011351DE5CDC
:100408001451DE58D8A03BD0000120EE06F0F2517E
:10041800D926F351DA22DECFDBF0DDCFDCF00201A2
:1004280013510001DB5F020114510001DC5BDB5159
:100438000201A35D0001DC510201A459D8B013D018
:1004480001010E510F11D8B448D7000E0001606F9A
:10045800000E616F000E626F050E636F01D83DD705
:100468000500FA6EBCD0000120EE06F0F251D92644
:10047800F351DA22DECF13F2DDCF14F21ED00001E1
:1004880020EE06F0F251D926F351DA22DE50DE10C2
:10049800D8A40DD0020113290AE11429D8A407D041
:1004A800000E146F000E136F154B162B06D00101AA
:1004B8000E510F11D8A4C9D710D70201132907E18B
:1004C800142905E1152903E11629D8B4F0D70751F5
:1004D8000F0B080AD8A408D0E951D5EC51F0020155
:1004E800EA51D5EC51F008D007510F0B030AD8A4F4
:1004F80003D0EA51D5EC51F0080E0101DA25DA6F84
:10050800000EDB21DB6FDC510001DB6FDC6B20EEC2
:1005180005F0F251D926F351DA22DF500F0BDD6FC7
:10052800DE6B0C0EDD27000EDE23DB51DD1904E146
:10053800DC51DE19D8B437D0DAC1D9FFDBC1DAFF14
:10054800DF50E06F0101DA4BDB2BDC51F40F0001C7
:10055800F16F190EE76FDAC192F0DBC193F0F10584
:10056800946F010E956F13C296F014C297F015C2DE
:1005780098F016C299F07B0E9A6F020E9B6FE7C037
:100588009CF0C70E9D6F070E9E6F010E9F6F95EC36
:1005980026F0FF0E0101DA250001E96FFF0E0101C7
:1005A800DB21000105D0000EF16F000EE96F000E8F
:1005B800EA6F02010883F00E071701010E510F11AF
:1005C800D8B48BD6E9C060F0EAC061F0F1C062F03F
:1005D800010E0001636F01D880D60500FA6E010193
:1005E8000E51FD6E0F51FE6EFF6AFA5012000001A7
:1005F80020EE01F0F251D926F351DA2202012351FB
:10060800DE180AE12451DE1807E12551DE1804E15D
:100618002651DE18D8B408D05BEC43F0020E020174
:100628001719D8A4120059D6000120EE06F0F2518D
:10063800D926F351DA22DECFDBF0DDCFDCF0DBC0E8
:100648006BF0DCC06CF06D6B6E6B0101DC51FC0F64
:1006580000016F6F490E706F000E716F010EC7ECCD
:100668003AF0C70E0001606F070E616F5F0E626F90
:10067800010E636F000E656F100E646FECEC47F0AF
:10068800D70E0001606F070E616FDAC162F0DBC13F
:1006980063F0FC0E0101DC250001646F656BFF0E41
:1006A8006523ECEC47F0270E0001BA6F020EBB6F12
:1006B8005F0EBC6F010EBD6FC70EBE6F070EBF6F1A
:1006C8000101DC510C0F0001C06FADEC0DF0EB0E19
:1006D8000001606F000E616F5F0E626F010E636F45
:1006E800000E656F040E646FECEC47F0DAC16BF036
:1006F800DBC16CF0DCC16DF0C9EC4AF06BC0E3F013
:100708006CC0E4F06DC0E5F06EC0E6F00001E351A6
:10071800EB190AE1E451EC1907E1E551ED1904E19F
:10072800E651EE19D8B403D05BEC43F077D720EE4E
:1007380006F0F251D926F351DA2202010F51DE5C9C
:100748001051DE58D8A04AD0000120EE06F0F25130
:10075800D926F351DA22DECFDBF0DDCFDCF002015F
:100768000F510001DB5F020110510001DC5BDB511E
:100778000201A15D0001DC510201A259D8B022D0CA
:100788000591F00E071701010E510F11D8B417D0BB
:100798000201059B000E0001606F000E616F000EE4
:1007A800626F000E636F01D80AD00500FA6E01016E
:1007B8000E51FD6E0F51FE6EFF6AFA5012000201D3
:1007C800089339D0000120EE06F0F251D926F351F2
:1007D800DA22DECF0FF2DDCF10F223D0000120EEB7
:1007E80006F0F251D926F351DA22DE50DE10D8A4F1
:1007F80015D002010F2912E11029D8A40FD0000149
:1008080020EE06F0F251D926F351DA22DECF0FF2AC
:10081800DDCF10F20201114B122B03D05BEC43F039
:10082800FDD602010F290AE1102908E1112906E184
:100838001229D8A403D00983020EF2D607510F0B50
:10084800030AD8A403D0EA51D5EC51F0010E0201F5
:10085800DD6FF2C060F0F3C061F04BEC48F00001CE
:1008680020EE05F0F251D926F351DA22DF500F0BB2
:100878000009D8B416D0080EF225A66F000EF32191
:10088800A76F20EE05F0F251D926F351DA22DF5096
:100898000F0BA86F22EC21F0A6C0DAF1A7C0DBF19C
:1008A80007D0080E0101DA25DA6F000EDB21DB6FB5
:1008B8000101DC510001DB6FDC6B20EE05F0F25129
:1008C800D926F351DA22DF500F0BDD6FDE6B0C0EE9
:1008D800DD27000EDE23DB51DD1904E1DC51DE19D2
:1008E800D8B496D0DAC1D9FFDBC1DAFFDF50E06FA8
:1008F8000101DA4BDB2B000120EE05F0F251D9267D
:10090800F351DA22DF500F0BDB6FDB510101DC5DA5
:10091800F40F0001F16F20EE05F0F251D926F351E2
:10092800DA22DF500F0B190FE76FE051D8B428D047
:10093800DAC192F0DBC193F0F105946F010E956F67
:100948000FC296F010C297F011C298F012C299F037
:10095800370E9A6F020E9B6FE7C09CF0C70E9D6F13
:10096800070E9E6F000E9F6F95EC26F0FF0E01019B
:10097800DA250001E96FFF0E0101DB2100014ED0ED
:100988000101DC510001DB6FDC6B20EE05F0F25158
:10099800D926F351DA22DF500F0BDD6FDE6B0D0E17
:1009A800DD27000EDE23DB51DD5DDE51800ADF6FBF
:1009B800DC51800ADF59D8B02BD0DAC192F0DBC104
:1009C80093F0F105946F010E956F0FC296F010C267
:1009D80097F011C298F012C299F0270E9A6F020E82
:1009E8009B6FE7C09CF0C70E9D6F070E9E6F000EB1
:1009F8009F6F95EC26F0DAC1A6F0DBC1A7F00001E5
:100A0800F105A86F22EC21F0A6C0DAF1A7C0DBF14E
:100A1800000E0001F16F000EE96F000EEA6F010E83
:100A28000201DD6F000ED66F000ED56F000EF36F5A
:100A38000599088305A155D0000120EE05F0F25173
:100A4800D926F351DA22DFAA49D002010591F00E26
:100A5800071701010E510F11D8B417D00201059BD9
:100A6800E9C060F0EAC061F0F1C062F0010E000177
:100A7800636F01D80AD00500FA6E01010E51FD6EB0
:100A88000F51FE6EFF6AFA5012000201089307BB6D
:100A980005BBC4D505B302D005A7C0D5010E00011A
:100AA800A76FE10EA86F000EA96F0201F2511EECAC
:100AB80034F00009D8A40FD0000E0001D46F000E46
:100AC800D56F000ED66F000ED76F000E12EC38F0FF
:100AD80002010597A3D5C5EC2AF0A0D57BEC45F01B
:100AE8009DD5F00E071701010E510F11D8B417D07C
:100AF8000201059BE9C060F0EAC061F0F1C062F054
:100B0800010E0001636F01D80AD00500FA6E0101D9
:100B18000E51FD6E0F51FE6EFF6AFA50120002016F
:100B280007BB05BB7BD505B302D005A777D5010E5A
:100B38000001A76FE10EA86F000EA96F0201F25124
:100B48001EEC34F00009D8A4C6D7000E0001D46FFB
:100B5800000ED56F000ED66F000ED76F000E12EC88
:100B680038F0B6D75BEC43F0120001010E510F11BB
:100B7800D8B4120053EC54F00001DB6FDBB714D08B
:100B8800DAC160F0DBC161F0DCC162F0030E636FB3
:100B980001D812000500FA6E01010E51FD6E0F51C9
:100BA800FE6EFF6AFA501200DAC160F0DBC161F034
:100BB800DCC162F0020E636F01D812000500FA6E04
:100BC80001010E51FD6E0F51FE6EFF6AFA501200C0
:100BD800020108B148D3000E0001C56F000EC66FB0
:100BE800000EC76F000EC86F000EC96FD269D369B7
:100BF800D469D569000E0201F66F0751F00B02099E
:100C0800076FDFC2D6F005A5B6D00F0E1C25F66E0D
:100C1800F76AFF0EF722F86A000EF8220800F5CFEF
:100C2800B5F09D510001B525B66F000EB5BFFF0E9A
:100C380002019E210001B76FB86BB96B0C0ED890FA
:100C4800B637B737B837B937E82EF9D7B6C060F036
:100C5800B7C061F0B8C062F0B9C063F07D0E646FD0
:100C6800000E656F000E666F000E676F96EC42F01F
:100C780060C06DF061C06EF062C06FF063C070F06C
:100C88000201E7517FEC4CF00F0E02012125F66EB0
:100C9800F76AFF0EF722F86A000EF8220800F5CF6F
:100CA800B5F09F510001B525B66F000EB5BFFF0E18
:100CB8000201A0210001B76FB86BB96B0C0ED89078
:100CC800B637B737B837B937E82EF9D7B6C060F0B6
:100CD800B7C061F0B8C062F0B9C063F07D0E646F50
:100CE800000E656F000E666F000E676F96EC42F09F
:100CF80060C06DF061C06EF062C06FF063C070F0EC
:100D08000201E8517FEC4CF00201E75173EC40F02E
:100D18000201E85173EC40F0E0C292F0E1C293F0B6
:100D28000001946B956BD60E966F0B0E976F000EA5
:100D3800986F000E996FD6EC48F0FF0E00019225CF
:100D4800CA6FFF0E9321CB6FFF0E9421CC6FFF0E5D
:100D58009521CD6FCAC092F0CBC093F0CCC094F06F
:100D6800CDC095F0B3C096F0B4C097F0986B996B6E
:100D7800D6EC48F0CED00F0E1C25F66EF76AFF0EA3
:100D8800F722F86A000EF8220800F5CFB5F099515D
:100D98000001B525B66F000EB5BFFF0E02019A21FE
:100DA8000001B76FB86BB96B0C0ED890B637B73770
:100DB800B837B937E82EF9D7B6C060F0B7C061F0D8
:100DC800B8C062F0B9C063F07D0E646F000E656F45
:100DD800000E666F000E676F96EC42F060C06DF013
:100DE80061C06EF062C06FF063C070F00201E9513B
:100DF8007FEC4CF00F0E02012125F66EF76AFF0E0C
:100E0800F722F86A000EF8220800F5CFB5F09B51DA
:100E18000001B525B66F000EB5BFFF0E02019C217B
:100E28000001B76FB86BB96B0C0ED890B637B737EF
:100E3800B837B937E82EF9D7B6C060F0B7C061F057
:100E4800B8C062F0B9C063F07D0E646F000E656FC4
:100E5800000E666F000E676F96EC42F060C06DF092
:100E680061C06EF062C06FF063C070F00201EA51B9
:100E78007FEC4CF00201E95173EC40F0020117518C
:100E8800D8A403D0EA5173EC40F00001D6510E0DFE
:100E98001A0EF324D96E040EF420DA6EDECFB5F004
:100EA800DDCFB6F0B551B76FB651B86FB96BBA6B45
:100EB800010EB725926F000EB821936F000EB9216D
:100EC800946F000EBA21956FE0C296F0E1C297F0D8
:100ED800986B996BD6EC48F0FF0E00019225CA6F0B
:100EE800FF0E9321CB6FFF0E9421CC6FFF0E95213F
:100EF800CD6FCAC092F0CBC093F0CCC094F0CDC0F7
:100F080095F0B3C096F0B4C097F0986B996BD6EC97
:100F180048F00001D6510E0D1C0EF324D96E040EB4
:100F2800F420DA6E92C0DEFF93C0DEFF94C0DEFFCD
:100F380095C0DEFF0201EE5140EC51F00009D8B433
:100F480078D00201EE51D5EC51F00201EE5104ECDB
:100F58004DF089C0CEF08AC0CFF08BC0D0F08CC0E5
:100F6800D1F00001D15108E11F0ECE5DAC0ECF5972
:100F7800DF0ED059D8A024D0CEC0B5F0CFC0B6F07F
:100F8800D0C0B7F0D1C0B8F00D0E05D0D890B833A6
:100F9800B733B633B533E82EF9D7B5C092F0B6C03B
:100FA80093F0B7C094F0B8C095F07D0E966F000E20
:100FB800976F000E986F000E996FD6EC48F01CD012
:100FC800CEC092F0CFC093F0D0C094F0D1C095F0CD
:100FD8007D0E966F000E976F000E986F000E996F3A
:100FE800D6EC48F00D0E06D00001D8909533943316
:100FF80093339233E82EF8D792C0BDF093C0BEF079
:1010080094C0BFF095C0C0F00001BD510201CD5D94
:101018000001C66FBE510201CE590001C76FBF5112
:101028000201CF590001C86FC0510201D059000117
:10103800C96F000E0001D66FD6510E0D180EF3249D
:10104800D96E040EF420DA6EDE04D8A492D0D651FC
:101058000E0D1C0EF324D96E040EF420DA6EDE5049
:10106800DE10DE10DE10D8B484D0D6510201DF19AC
:10107800D8B44CD00001D6510E0D1C0EF324D96EF5
:10108800040EF420DA6EDE50C65DDE50C759DE501D
:10109800C859DE50C959D8B02DD0D6510E0D1C0EE6
:1010A800F324D96E040EF420DA6EDECFB5F0DECF6D
:1010B800B6F0DECFB7F0DECFB8F0C651B55DB96F88
:1010C800C751B659BA6FC851B759BB6FC951B8594A
:1010D800BC6FD6510E0D1C0EF324D96E040EF420ED
:1010E800DA6EB9C0DEFFBAC0DEFFBBC0DEFFBCC02F
:1010F800DEFF0CD0D6510E0D1C0EF324D96E040E53
:10110800F420DA6EDE6ADE6ADE6ADD6A0001D65134
:101118000E0D1C0EF324D96E040EF420DA6EDE5088
:10112800D25DDE50D359DE50D459DE50D559D8A0FF
:1011380020D0D6510E0D1C0EF324D96E040EF420C7
:10114800DA6EDE50DE10DE10DE10D8B412D0D651C2
:101158000E0D1C0EF324D96E040EF420DA6EDECFC9
:10116800D2F0DECFD3F0DECFD4F0DECFD5F0010E53
:10117800C56FD62B0F0ED6655FD7C505D8A467D027
:10118800D2C0CDF2D3C0CEF2D4C0CFF2D5C0D0F207
:10119800D55107E1D229FF0ED3590F0ED459D8A043
:1011A8001CD0D2C060F0D3C061F0D4C062F0D5C00A
:1011B80063F07D0E646F000E656F000E666F000EA3
:1011C800676F96EC42F00C0ED890000160376137DB
:1011D80062376337E82EF8D722D0D2C0B5F0D3C033
:1011E800B6F0D4C0B7F0D5C0B8F00C0ED890B5376B
:1011F800B637B737B837E82EF9D7B5C060F0B6C0FC
:1012080061F0B7C062F0B8C063F07D0E646F000E85
:10121800656F000E666F000E676F96EC42F060C057
:10122800C1F061C0C2F062C0C3F063C0C4F0C1C005
:101238006DF0C2C06EF0C3C06FF0C4C070F00201A0
:10124800EE517FEC4CF00201EE5173EC40F0020ECF
:1012580002011719D8A412000751F00B0809076FEB
:10126800D5EC43F0120053EC54F00001B56FB5A96A
:1012780014D0000E606F000E616F000E626F020ED8
:10128800636F01D812000500FA6E01010E51FD6E60
:101298000F51FE6EFF6AFA50120001010E510F1134
:1012A800D8B41200000E0001606F000E616F000ECE
:1012B800626F030E636F01D812000500FA6E010118
:1012C8000E51FD6E0F51FE6EFF6AFA50120041C1B9
:1012D80065F0000E0001666F000E1CEC36F029C1A7
:1012E8006DF02AC16EF02BC16FF02CC170F08BEC41
:1012F80038F00101445103EC39F001014105D8A44B
:10130800ECD137C162F0390EC5EC51F04BC1A0F0F9
:10131800010E0001A0170101D8904A350001A16F04
:1013280001014339F00B0001A111A011626F1D0EDC
:10133800C5EC51F09EC0A0F09FC0A1F0A1C0A0F0E4
:101348000001A16B030EA01745C1A2F0010EA21760
:10135800D890A237D890A23701014239F00B00018A
:10136800A211A011626F1E0EC5EC51F00101475188
:101378004811D8B46FD047C1A4F048C1A5F0000106
:10138800A66BA76B4ED0A4C092F0A5C093F0A6C0E0
:1013980094F0A7C095F07D0E0001966F000E976F30
:1013A800000E986F000E996FD6EC48F027D0A4C0B5
:1013B80092F0A5C093F0A6C094F0A7C095F0FA0EDD
:1013C8000001966F000E976F000E986F000E996FD0
:1013D800D6EC48F013D0A4C092F0A5C093F0A6C0F4
:1013E80094F0A7C095F0F40E0001966F010E976F68
:1013F800000E986F000E996FD6EC48F092C0A4F0DA
:1014080093C0A5F094C0A6F095C0A7F016D0000E22
:101418000001A46F000EA56F000EA66F000EA76F47
:101428000CD001014351070AD8B4ADD70F0AD8B47C
:10143800BED7010AD8B4CFD7EAD7010142290001A3
:10144800A06F05D0D890A733A633A533A433A02F17
:10145800F9D709D0000E0001A46F000EA56F000E89
:10146800A66F000EA76FA4C062F0240EC5EC51F061
:101478009EC062F01F0EC5EC51F0260EF5EC50F040
:101488000001A86F0C0E01014219D8A408D0070E5C
:101498004319D8B40CD0080E4319D8B408D00B0E91
:1014A8004219D8A407D0070E4319D8A403D00001C5
:1014B800A88702D00001A897A885A8C062F0260EC8
:1014C800C5EC51F0310EF5EC50F00001A86FF80EA4
:1014D800A817030EA813A8C062F0310EC5EC51F08E
:1014E8000A0E0001626F370EC5EC51F0120E0101B1
:1014F8005A19D8A42FD0070E4319D8B404D0080E0F
:101508004319D8A417D0310EF5EC50F00001A86F9C
:10151800A89FA8C062F0310EC5EC51F0400E000142
:10152800626F2F0EC5EC51F0000E0001626F300E95
:10153800C5EC51F0090E01014319D8A40BD0310EA6
:10154800F5EC50F00001A86FA88FA8C062F0310E2A
:10155800C5EC51F0330EF5EC50F00001A86FA89DD2
:10156800A88149C1A0F0010EA017060EA16FD8905E
:10157800A037A12FFCD7A051A813A8C062F0330E42
:10158800C5EC51F049C1A0F0010E0001A017D89098
:10159800A037D890A035FF0A1D0BA86FA8C062F02D
:1015A8003B0EC5EC51F0010136510001626F200E6F
:1015B800C5EC51F035C162F0210EC5EC51F0000EBA
:1015C8000001626F0D0EC5EC51F0000E0001626F54
:1015D8000E0EC5EC51F0000E0001626F0F0EC5EC47
:1015E80051F0120E01015A19D8A470D0090E4319EE
:1015F800D8A420D0800E295D130E2A59610E2B59CC
:10160800330E2C59D8A016D02905F70E2A59CB0E1F
:101618002B593C0E2C59D8B00DD0020E0001626F28
:10162800360EC5EC51F0640E0001626F3A0EC5EC3F
:1016380051F02BD0090E4319D8A421D0800E295D72
:101648001A0E2A59700E2B59180E2C59D8A017D0DB
:10165800410E295DDD0E2A594A0E2B591F0E2C59B1
:10166800D8B00DD0020E0001626F360EC5EC51F0F5
:101678007F0E0001626F3A0EC5EC51F006D0030EE2
:101688000001626F360EC5EC51F0090E01014319D5
:10169800D8A410D04905D8A40DD0650E0001626FFA
:1016A8003A0EC5EC51F0190E0001626F3B0EC5EC05
:1016B80051F00CD0650E0001626F3A0EC5EC51F086
:1016C8001D0E0001626F3B0EC5EC51F0FF0E0001CC
:1016D800626F120EC5EC51F012002DC16DF02EC1D3
:1016E8006EF02FC16FF030C170F055EC46F031C18B
:1016F8006DF032C16EF033C16FF034C170F0BEECE2
:1017080046F0010136510001626F250EC5EC51F01B
:1017180035C162F0260EC5EC51F00A0EF5EC50F01A
:101728000001A86F9F0EA81701015C39E846E00B7D
:101738000001A813A8C062F00A0EC5EC51F0C80E4B
:101748000001A86F01014551D8B402D00001A88951
:10175800A8C062F0300EC5EC51F0000E0001A36F76
:101768000ED0380EA325D96EDA6A010EDA22DF50C0
:10177800626FA351280FC5EC51F00001A32B0101A2
:1017880040510001A35DD8A0ECD701014051D8B465
:1017980008D0400510090001626F270EC5EC51F012
:1017A80006D0000E0001626F270EC5EC51F0FF0E47
:1017B8000001626F3E0EC5EC51F0FF0E0001626F32
:1017C8003F0EC5EC51F012000001CF6F100E000162
:1017D800D36F000ED26FD00E606F000E616F000ED7
:1017E800636F000E626F000E656F010E646FCAECC6
:1017F8004FF0B80E0001606F060E616F000E636F48
:10180800000E626F010E656F0F0E646FCAEC4FF029
:101818005F0E0001606F010E616F000E636F000EB6
:10182800626F000E656F100E646FCAEC4FF0000116
:10183800CF05D8A407D0D0511F0B8009D06F020163
:10184800058104D0D0511F0B4009D06FFC0E000158
:10185800D017E30ED017B80ED325D96EDA6A060E64
:10186800DA22D0C0DFFFD32BB80ED325606F616BAF
:10187800060E6123230E626F020E636F000E656F02
:10188800040E646FECEC47F00001D351040FD36FE2
:10189800000ED16F020107AD46D00001D18F0201C1
:1018A800E451F05DD8B03DD00001D18D0201058929
:1018B800D54BD62BA7510001CD6FCE6B0201D55168
:1018C8000001CD190BE10201D6510001CE19D8A4AF
:1018D80005D0000E0201F36F000122D00201A751CA
:1018E8000001CD6FCE6B0201D5510001CD5D020123
:1018F800D6510001CE59D8B013D00201F32BF351C1
:10190800A85DD8B010D0000EF36FBCEC3CF0000915
:10191800D8A409D0000E0201D66F000ED56FDCD70F
:10192800D19D02010599020105A304D00001D18BC4
:10193800020105930001D1990201AC51D8B405D038
:101948000001CB51CC11D8A404D0F00E0001D1175E
:1019580009D030EC3BF00001CD6FD151CD19F00B1F
:10196800CD19D16FB80ED325D96EDA6A060EDA22F0
:10197800D1C0DFFFD32BB80ED325606F616B060E85
:1019880061230B0E626F020E636F000E656F020E0D
:10199800646FECEC47F00001D351020FD36F0201E2
:1019A800AC51D8B411D00001CB51CC11D8B40CD063
:1019B800B80E606F060E616FD30E626F000E636F14
:1019C800010E646F05EC11F0B80E0001D325D96E35
:1019D800DA6A060EDA22C8C0DFFFD32BCB51CC114E
:1019E800D8B433D0B80ED325606F616B060E61236F
:1019F800C9C062F0CAC063F0CBC064F0CCC065F067
:101A0800ECEC47F0C9C092F0CAC093F0CBC094F098
:101A1800000E0001956F0BC296F00CC297F00DC234
:101A280098F00EC299F0370E9A6F020E9B6FD3C0D2
:101A38009CF0B80E9D6F060E9E6F000E9F6F95EC82
:101A480026F00001D351CB2533D00201AC51D8B4D4
:101A580030D0C70E0001606F070E616FD20E626F43
:101A6800000E636F000E646F05EC11F0C70E0001E5
:101A7800926F070E936FD2C094F0000E956F0BC251
:101A880096F00CC297F00DC298F00EC299F0270E8E
:101A98009A6F020E9B6FD3C09CF0B80E9D6F060E16
:101AA8009E6F000E9F6F95EC26F00001D351D22552
:101AB800D36F0BC26BF00CC26CF00DC26DF00EC28E
:101AC8006EF00001D351F00F6F6F490E706F000E6A
:101AD800716F000EC7EC3AF0B80E0001606F060E89
:101AE800616F5F0E626F010E636F000E656F100EFF
:101AF800646FECEC47F0270E0001BA6F020EBB6F63
:101B08005F0EBC6F010EBD6FB80EBE6F060EBF6FC5
:101B1800D3C0C0F0ADEC0DF0B80E0001D325606F56
:101B2800616B060E61235F0E626F010E636F000E1C
:101B3800656F040E646FECEC47F00001D351040F9D
:101B4800D36FF00ED3250201D96FDA6BFF0EDA23BB
:101B58001200000E0101D96F000ED86F000ED66F6B
:101B6800BAC092F0BBC093F0840E0001946F010ECE
:101B7800956F740E966F010E976F31EC2FF0000180
:101B8800C051C16FC26B0F0EC127000EC223040ED5
:101B9800C36FC235C233C133C32FFBD7C151010153
:101BA800D76FD751D8A404D0010ED76F000E0BD031
:101BB800C0C0C1F00F0E0001C117D8A402D0010E99
:101BC80001D0000E0101D66FD605D8A445D0000E6D
:101BD800D86FD751100DF350F00FD96F20D0940E55
:101BE8000101D825D96EDA6A010EDA22840ED825C9
:101BF800E96EEA6A010EEA22EF500001C16F0101A5
:101C0800D9510001BE25E96E0101000E0001BF2176
:101C1800EA6EEF50C119DF6E0101D82BD92BD751CD
:101C28000001C16FC26BC13BC23BF00EC217C1516C
:101C38000F0BC213F00EC1170101D9510001C36F78
:101C4800C46BC151C35DC451800AC56FC251800ABB
:101C5800C559D8B069D0C3D70001C051BE25C16FDE
:101C6800000EBF21C26FC0C0C3F00F0EC317C3510F
:101C7800C15D0101D46F0001C251D8A0C2050101A4
:101C8800D56F000ED96F0001C0510F0B0101D9614A
:101C98000FD0D951D425D96E000ED521DA6EA40EF5
:101CA800D925E96EEA6A010EEA22DFCFEFFF17D0E5
:101CB8000001C0510F0B0101D919D8A408D0A40EF6
:101CC800D925D96EDA6A010EDA22800E07D0A40E61
:101CD800D925D96EDA6A010EDA22000EDF6ED92B09
:101CE8000F0ED965D0D7000ED96F940ED925D96EAD
:101CF800DA6A010EDA22740ED925E96EEA6A010E53
:101D0800EA22EF500001C16FA40E0101D925E96E46
:101D1800EA6A010EEA22EF500001C119DF6E0101E3
:101D2800D92B0F0ED965E1D7C40E0001606F010EE3
:101D3800616F000E636F000E626F000E656F100E0C
:101D4800646FCAEC4FF0000E0101D96F56D0000E37
:101D58000101D86FB40ED825D96EDA6A010EDA22DD
:101D6800D9510001C16FC26BC13BC23BF00EC21713
:101D7800C1510F0BC213F00EC117BEC0C3F0BFC0D4
:101D8800C4F0C151C327C251C4230101D851000175
:101D9800C325E96E0101000E0001C421EA6EEF506F
:101DA800C56FC40E0101D825E96EEA6A010EEA2260
:101DB800EF500001C519DF6E0101D82B0F0ED86551
:101DC800C9D7C40E0001606F010E616FB40E626F57
:101DD800010E636F000E656F100E646FECEC47F038
:101DE800C40E00017E6F010E7F6FBAC080F0BBC0C9
:101DF80081F017EC4EF00101D92BFF0E0001C16FE5
:101E0800FF0EC26F0101D7510001C36FC46BC151EE
:101E1800C327C251C4230101D9510001C56FC66B44
:101E2800C351C55DC651800AC76FC451800AC759DE
:101E3800D8A08DD7000E0101D96FB40ED925D96E5F
:101E4800DA6A010EDA22940ED925E96EEA6A010EE1
:101E5800EA22EF500001C16FC40E0101D925E96ED5
:101E6800EA6A010EEA22EF500001C119DF6E010192
:101E7800D92B0F0ED965E1D7B40E00017E6F010E84
:101E88007F6FBAC080F0BBC081F017EC4EF0BCC0C9
:101E980060F0BDC061F0B40E0001626F010E636FA7
:101EA800000E656F100E646FECEC47F01200000135
:101EB8008751800B906F87518725966F86BF9681D3
:101EC8009651D8B40DD09629D8A408D0000E846FA6
:101ED800000E856F000E866F000E876F868F08D004
:101EE800000E846F000E856F000E866F000E876FE0
:101EF8008B51800B901B8B518B25956F8ABF9581D9
:101F08009551D8B40DD09529D8A408D0000E886F63
:101F1800000E896F000E8A6F000E8B6F8A8F08D0B3
:101F2800000E886F000E896F000E8A6F000E8B6F8F
:101F38009551D8B403D09651D8A409D0000E846F17
:101F4800000E856F000E866F000E876F12008A5193
:101F58008403F3CF9BF0F4CF9CF09B51916F926B6D
:101F6800936B946B9C51976F986B996B9A6B895193
:101F78008503F3CF9BF0F4CF9CF09B519127000E83
:101F88009223932394239C519727000E98239923F7
:101F98009A2388518603F3CF9BF0F4CF9CF09B5192
:101FA8009127000E9223932394239C519727000E88
:101FB800982399239A2393C094F092C093F091C0E8
:101FC80092F0916B88518503F3CF9BF0F4CF9CF08E
:101FD8009B5191279C519223000E9323000E94232A
:101FE80089518403F3CF9BF0F4CF9CF09B51912748
:101FF8009C519223000E9323000E942393C094F0D7
:1020080092C093F091C092F0916B88518403F3CF02
:102018009BF0F4CF9CF09B5191279C519223000E8A
:102028009323000E94238A518503F3CF9BF0F4CFBA
:102038009CF09B5197279C519823000E9923000EE2
:102048009A2389518603F3CF9BF0F4CF9CF09B51E0
:1020580097279C519823000E9923000E9A238A51A2
:102068008603F3CF9BF0F4CF9CF09B518C6F9C516F
:102078008D6F8E6B8F6B8EC08FF08DC08EF08CC085
:102088008DF08C6B8C5197278D5198238E51992305
:102098008F519A2391C08CF092C08DF093C08EF02E
:1020A80094C08FF0190E05D0D8908F338E338D33AE
:1020B8008C33E82EF9D78C5197278D5198238E5160
:1020C80099238F519A2393C094F092C093F091C0B2
:1020D80092F0916B955196C08CF08D6B8C27000E09
:1020E8008D23820E8C259B6FFF0E8D219C6F0FD048
:1020F800D8909737983799379A3794BF9781D8905F
:1021080091379237933794379B07D8A09C0799AF9C
:10211800EFD7000E956F94AF17D0FF0E91158C6F07
:10212800FF0E92158D6FFF0E93158E6F7F0E94150F
:102138008F6F8C518D118E118F11D8B403D0010E71
:10214800956F02D097B1FBD79551D8B41FD0010E27
:102158009727000E982399239A239AA117D097C0FE
:102168008CF098C08DF099C08EF09AC08FF08F35A2
:102178008F338E338D338C338CC097F08DC098F0AD
:102188008EC099F08FC09AF09B4B9C2B9CBF0DD0B2
:102198009C5103E19B29D8A008D0000E976F000E30
:1021A800986F800E996F7F0E20D09CBF05D09C51F0
:1021B8000EE19B05D8B00BD0000E976F000E986FFC
:1021C800000E996F000E9A6F000E906F0FD09BC093
:1021D80096F0FF0E9717FF0E98177F0E9917000EAF
:1021E8009A1796B1998FD89096319A6F90519A1301
:1021F80097C084F098C085F099C086F09AC087F09F
:10220800120062C0D9FF63C0DAFFDF5000016D6FB2
:10221800000E6C6F82D16451D8B460D16C51020D3C
:10222800AD0EF324D96E020EF420DA6EDE28D8B48F
:1022380055D1FE0E656FFF0E666F6C51020DAD0E27
:10224800F324D96E020EF420DA6EDF50676F686BE4
:102258006551672766516823270E6725F66EFF0EBE
:102268006821F76EF86A000EF8220800F5506DC074
:1022780069F06A6B6927000E6A2362C0D9FF63C0E0
:10228800DAFFDF506B6F6B51695F000E6A5B6ABFE4
:1022980025D16A5105E1100E695DD8B044D11ED12F
:1022A80042D16D516025D96E000E6121DA6E030EA0
:1022B800DF6E6D2B6D516025D96E000E6121DA6ECF
:1022C800000EDF6E6C51020DAE0EF324D96E020EB5
:1022D800F420DA6E0201DFA009D000016D516025FB
:1022E800D96E000E6121DA6E000EDB8000016C51A0
:1022F800020DAE0EF324D96E020EF420DA6E02013E
:10230800DFA209D000016D516025D96E000E612150
:10231800DA6E000EDB8200016C51020DAE0EF32462
:10232800D96E020EF420DA6E0201DFA409D0000192
:102338006D516025D96E000E6121DA6E000EDB84C6
:1023480000016D2BE9D06D516025D96E000E612119
:10235800DA6E050EDF6E6D2B6D516025D96E000E9D
:102368006121DA6E000EDF6E6C51020DAE0EF324A1
:10237800D96E020EF420DA6E0201DFA609D0000140
:102388006D516025D96E000E6121DA6E000EDB807A
:1023980000016C51020DAE0EF324D96E020EF4202A
:1023A800DA6E0201DFA809D000016D516025D96EEF
:1023B800000E6121DA6E000EDB8200016C51020D05
:1023C800AE0EF324D96E020EF420DA6E0201DFBAE3
:1023D800AED7B6D76D516025D96E000E6121DA6E81
:1023E800060EDF6E6D2B6D516025D96E000E6121D2
:1023F800DA6EE5C2DFFF6D2B50EC54F0800AA00FB7
:10240800D8A006D050EC54F0800A600FD8A009D0AC
:1024180000016D516025D96E000E6121DA6E200E23
:102428000AD000016D516025D96E000E6121DA6E67
:1024380050EC54F03F0BDF6E83D76D516025D96E99
:10244800000E6121DA6E070EDF6E6D2B6D5160256F
:10245800D96E000E6121DA6E000EDF6E6C51020D2E
:10246800AE0EF324D96E020EF420DA6E0201DFAE4E
:1024780009D000016D516025D96E000E6121DA6E18
:10248800000EDB8000016C51020DAE0EF324D96EF4
:10249800020EF420DA6E0201DFAC52D700016D5152
:1024A8006025D96E000E6121DA6E000EDB8248D7F6
:1024B8000201E269000EE36F00016C51020DAD0EDE
:1024C800F324D96E020EF420DA6E6D516025E96EA0
:1024D800000E6121EA6EDFCFEFFF32D76C51020D9B
:1024E800AD0EF324D96E020EF420DA6EDF50020A24
:1024F800D8B4DED7010AD8B4D4D6070AD8B4DCD702
:10250800010AD8B420D7030AD8B464D7010AD8B4CA
:1025180094D70F0AD8B4D0D76C2B0201AC51000164
:102528006C5DD8A078D662C0D9FF63C0DAFF6DC0F1
:10253800DFFF1200330E0001886F330E896F530ED0
:102548008A6F400E8B6FB6C060F0B7C061F0626BE7
:10255800636B000E16EC2CF060C084F061C085F04F
:1025680062C086F063C087F05BEC0FF084C09DF01A
:1025780085C09EF086C09FF087C0A0F0000E0001C5
:10258800A16FC00EA26F7F0EA36F440EA46F8CECD8
:102598001BF09DC0BCF09EC0BDF09FC0BEF0A0C0A7
:1025A800BFF0BCC084F0BDC085F0BEC086F0BFC01F
:1025B80087F00A0E0001886FD70E896FA30E8A6F05
:1025C8003C0E8B6F89EC4BF084C0BCF085C0BDF02D
:1025D80086C0BEF087C0BFF0000E0001886F800E75
:1025E800896FF90E8A6F430E8B6F330E786F330E37
:1025F800796FD30E7A6FBF0E7B6FBCC074F0BDC00D
:1026080075F0BEC076F0BFC077F034EC14F074C03B
:1026180084F075C085F076C086F077C087F05BECF3
:102628000FF084C09DF085C09EF086C09FF087C0E3
:10263800A0F0330E0001A16F330EA26FD30EA36F6B
:10264800BF0EA46F8CEC1BF09DC0C0F09EC0C1F003
:102658009FC0C2F0A0C0C3F0C0C0BCF0C1C0BDF0F4
:10266800C2C0BEF0C3C0BFF0BCC09DF0BDC09EF0EC
:10267800BEC09FF0BFC0A0F0000E0001A16F000E09
:10268800A26FC80EA36F420EA46F8CEC1BF09DC006
:10269800BCF09EC0BDF09FC0BEF0A0C0BFF0BCC0E3
:1026A800ADF0BDC0AEF0BEC0AFF0BFC0B0F0CCEC76
:1026B80025F0ADC0B8F0AEC0B9F0AFC0BAF0B0C048
:1026C800BBF0B8C084F0B9C085F0BAC086F0BBC012
:1026D80087F0C20E0001886FA40E896F980E8A6F6A
:1026E8003D0E8B6F5BEC0FF084C0C0F085C0C1F06D
:1026F80086C0C2F087C0C3F0C0C074F0C1C075F016
:10270800C2C076F0C3C077F0000E0001786F000EEB
:10271800796F800E7A6F3F0E7B6F34EC14F074C0C3
:10272800C0F075C0C1F076C0C2F077C0C3F0330EF8
:1027380000019D6F130E9E6F950E9F6F430EA06F45
:10274800C0C0A1F0C1C0A2F0C2C0A3F0C3C0A4F031
:102758008CEC1BF09DC0C0F09EC0C1F09FC0C2F0C1
:10276800A0C0C3F0C0C084F0C1C085F0C2C086F06C
:10277800C3C087F0330E0001886F930E896F880EEF
:102788008A6F430E8B6F89EC4BF084C0C0F085C014
:10279800C1F086C0C2F087C0C3F0C0C084F0C1C019
:1027A80085F0C2C086F0C3C087F0000E0001886FB4
:1027B800000E896F200E8A6F410E8B6F5BEC0FF055
:1027C80084C0C0F085C0C1F086C0C2F087C0C3F025
:1027D80030D0C0C074F0C1C075F0C2C076F0C3C0BC
:1027E80077F0000E0001786F000E796F800E7A6F17
:1027F800410E7B6F34EC14F013D0C0C074F0C1C02C
:1028080075F0C2C076F0C3C077F0000E0001786F93
:10281800000E796F900E7A6F410E7B6F34EC14F0D6
:1028280074C0C0F075C0C1F076C0C2F077C0C3F004
:1028380008D001012351010AD8B4CBD7030AD8B470
:10284800DCD7C0C060F0C1C061F0C2C062F0C3C0D4
:1028580063F07CEC3DF060C0B6F061C0B7F01200E8
:1028680000017751800B806F77517725826F76BF93
:1028780082818251D8B40DD08229D8A408D0000E04
:10288800746F000E756F000E766F000E776F768F7F
:1028980006D0000E746F000E756F000E766F000E76
:1028A800776F7B51800B816F80518119D8A4808DFF
:1028B8007B517B25816F7ABF81818151D8B40DD03E
:1028C8008129D8A408D0000E786F000E796F000E09
:1028D8007A6F000E7B6F7A8F06D0000E786F000E2D
:1028E800796F000E7A6F000E7B6F8251815DD8B0D0
:1028F80022D080AD02D0800E801B82C083F081C0C0
:1029080082F083C081F074C083F078C074F083C013
:1029180078F075C083F079C075F083C079F076C01F
:1029280083F07AC076F083C07AF077C083F07BC0FA
:1029380077F083C07BF0000E836F825181C07CF0FA
:102948007D6B7C5F000E7D5B7DBF2CD07D5104E1EB
:102958001A0E7C5DD8A026D07451751176117711A6
:10296800D8B402D0010E01D0000E836F000E746F30
:10297800000E756F000E766F000E776F81C082F0C3
:1029880015D083A105D0D89083310109836F02D077
:10299800D890833374B1838F773577337633753333
:1029A8007433822B8151825DD8A0EBD780BD28D0AB
:1029B8008251D8A409D0000E746F000E756F000EF6
:1029C800766F000E776F120078517427795175234E
:1029D8007A5176237B51772377A171D083A105D0D3
:1029E800D89083310109836F02D0D890833374B1B2
:1029F800838F77357733763375337433822B5FD093
:102A08007851745D795175597A5176597751800AA0
:102A18007C6F7B51800A7C59D8B025D07451785D81
:102A28007C6F755179597D6F76517A597E6F7751E0
:102A38007B597F6FFF0E7C25746FFF0E7D21756FAC
:102A4800FF0E7E21766FFF0E7F21776F800E801B31
:102A5800836D8351D8A40FD0010E7427000E7523FF
:102A68007623772308D07851745F7951755B7A5152
:102A7800765B7B51775B7451751176117711D8A409
:102A88001CD08351D8A419D0000E746F000E756F36
:102A9800000E766F000E776F1200D8907437753776
:102AA8007637773783BF748183A102D0D88001D06D
:102AB800D89083378251D8A4820776AFEED7000E1C
:102AC800816F83AF0BD083C07CF07F0E7C17D8B4A6
:102AD80003D0010E816F02D074B1FBD78151D8B4F5
:102AE80020D0010E7427000E75237623772377A153
:102AF80018D074C07CF075C07DF076C07EF077C0C9
:102B08007FF07F357F337E337D337C337CC074F038
:102B18007DC075F07EC076F07FC077F08229D8A49A
:102B2800822B8229D8B403D08251D8A40DD0000EAC
:102B3800746F000E756F000E766F000E776F8251FE
:102B4800D8A402D0000E806F82A102D0768F01D067
:102B5800769FD8908231776F80BF778F74C074F07A
:102B680075C075F076C076F077C077F012000A0E5F
:102B7800E126000EE222FF0E4E6EFF0E4F6EFF0E94
:102B8800506EFF0E516EFA0E4EC0E3FFFB0E4FC0A3
:102B9800E3FFFC0E50C0E3FFFD0E51C0E3FFFF0E44
:102BA800E36AFE0EE36AFE0EE3500E0D180EF324E0
:102BB800D96E040EF420DA6EDE04D8A4ADD0FE0E71
:102BC800E3500E0D1C0EF324D96E040EF420DA6EB9
:102BD800DE50DE10DE10DE10D8B49ED0FE0EE350BC
:102BE8000E0D1C0EF324D96E040EF420DA6EDE509E
:102BF8000201CD5DDE50CE59DE50CF59DE50D0599E
:102C0800D8B02FD0FE0EE3500E0D1C0EF324D96E53
:102C1800040EF420DA6EDECF4EF0DECF4FF0DECFBA
:102C280050F0DECF51F0CD514E5C4A6ECE514F5828
:102C38004B6ECF5150584C6ED05151584D6EFE0EC0
:102C4800E3500E0D1C0EF324D96E040EF420DA6E38
:102C58004AC0DEFF4BC0DEFF4CC0DEFF4DC0DEFFCA
:102C68000DD0FE0EE3500E0D1C0EF324D96E040E8B
:102C7800F420DA6EDE6ADE6ADE6ADD6AFE0EE35092
:102C88000E0D1C0EF324D96E040EF420DA6EFA0E23
:102C9800E3CF46F0DE50465CFB0EE3CF46F0DE5055
:102CA8004658FC0EE3CF46F0DE504658FD0EE3CF03
:102CB80046F0DE504658D8A02FD0FE0EE3500E0D39
:102CC8001C0EF324D96E040EF420DA6EDE50DE10EA
:102CD800DE10DE10D8B420D0FE0EE3500E0D1C0E10
:102CE800F324D96E040EF420DA6EDECF4EF0DECF78
:102CF8004FF0DECF50F0DECF51F0FA0E4EC0E3FFBA
:102D0800FB0E4FC0E3FFFC0E50C0E3FFFD0E51C0A9
:102D1800E3FFFF0EE36AE32AFE0EE32AFE0EE3CF8B
:102D280046F00F0E46643FD7FF0EE304D8A49DD0AB
:102D3800E150FA0FD96EE250DA6EFF0EDA22DECFDA
:102D4800CDF2DECFCEF2DECFCFF2DECFD0F2FD0E67
:102D5800E3500EE1FA0EE328FB0EE3CF46F0FF0E38
:102D6800465AFC0EE3CF46F00F0E465AD8A02BD099
:102D7800E150FA0FD96EE250DA6EFF0EDA22DECF9A
:102D880060F0DECF61F0DECF62F0DECF63F07D0E63
:102D98000001646F000E656F000E666F000E676FAE
:102DA80096EC42F060C04EF061C04FF062C050F047
:102DB80063C051F00C0ED8904E364F36503651360F
:102DC800E82EF9D72FD0FA0EE3CF4EF0FB0EE3CF63
:102DD8004FF0FC0EE3CF50F0FD0EE3CF51F00C0E98
:102DE800D8904E364F3650365136E82EF9D74EC069
:102DF80060F04FC061F050C062F051C063F07D0ECA
:102E08000001646F000E656F000E666F000E676F3D
:102E180096EC42F060C04EF061C04FF062C050F0D6
:102E280063C051F0F60E4EC0E3FFF70E4FC0E3FF4C
:102E3800F80E50C0E3FFF90E51C0E3FFE150F60F62
:102E4800D96EE250DA6EFF0EDA22DECF6DF0DECFF9
:102E58006EF0DECF6FF0DECF70F00201EE517FEC46
:102E68004CF00201EE5173EC40F0F50EE126FF0E36
:102E7800E22212000001BE69BF69C069C16902018E
:102E880008B15ED107510F0B030AD8A411D017510E
:102E9800D8A405D00751F00B0409076F1200020EE1
:102EA8001719D8A41200000EE66E5BEC3AF0120077
:102EB80005A503D025EC50F0120007A9120005A1C2
:102EC80058D0DE51DC5DD8A038D00751F00B060988
:102ED800076FA5510001BA6F0201A6510001BB6F2F
:102EE800BC6BBD6B0C0ED890BA37BB37BC37BD373F
:102EF800E82EF9D7BAC060F0BBC061F0BCC062F080
:102F0800BDC063F07D0E646F000E656F000E666FC6
:102F1800000E676F96EC42F060C06DF061C06EF015
:102F280062C06FF063C070F00201ED517FEC4CF0AD
:102F38000201ED5173EC40F0120098EC53F00101DE
:102F48000E510F11D8B41200000E0001606F000E70
:102F5800616F000E626F000E636F01D812000500EA
:102F6800FA6E01010E51FD6E0F51FE6EFF6AFA50A6
:102F78001200DD51DB5DD8A0C7D00751F00B060960
:102F8800076F010E8AEC46F00009D8A418D0C80EC5
:102F98000001A96F060EAA6FD9C2ABF006EC1FF0AC
:102FA8000001A951AA11D8A407D00201DD2B0751AD
:102FB800F00B0109076F120068EC53F0C0D7000E40
:102FC8000001C26F64D00001C2510E0D180EF32427
:102FD800D96E040EF420DA6EDE04D8A456D0C2519D
:102FE8000E0D1C0EF324D96E040EF420DA6EDE509A
:102FF800DE10DE10DE10D8B448D0C2510E0D1C0E03
:10300800F324D96E040EF420DA6EDE50BE5DDE5075
:10301800BF59DE50C059DE50C159D8A036D0C25170
:103028000E0D190EF324D96E040EF420DA6E040185
:10303800DF500F0B0001BA6FBA510201E45DD8A04E
:1030480024D00001C2510E0D190EF324D96E040EBE
:10305800F420DA6E0401DF380F0B0001BA6F0201A9
:10306800E4510001BA5DD8A010D0C2510E0D1C0E5B
:10307800F324D96E040EF420DA6EDECFBEF0DECF74
:10308800BFF0DECFC0F0DECFC1F00001C22BC251CD
:103098000201F25DD8B097D7BEC0BAF0BFC0BBF08E
:1030A800C0C0BCF0C1C0BDF00C0ED8900001BA374A
:1030B800BB37BC37BD37E82EF8D7000EBA25606F8E
:1030C800200EBB21616F030EBC21626F000EBD2173
:1030D800636F7D0E646F000E656F000E666F000EE5
:1030E800676F96EC42F060C06DF061C06EF062C030
:1030F8006FF063C070F00201EF517FEC4CF00201F9
:10310800EF5173EC40F0120068EC53F001010E51DE
:103118000F11D8B41200000E0001606F000E616F2D
:10312800000E626F010E636F01D812000500FA6E7F
:1031380001010E51FD6E0F51FE6EFF6AFA5012002A
:1031480001010E510F11D8B41200000E0001606F7A
:10315800000E616F000E626F020E636F01D81200DD
:103168000500FA6E01010E51FD6E0F51FE6EFF6AE9
:10317800FA5012000A0E436E010E426E000E000154
:103188007D6F7D516925D96E000E6A21DA6EDF5098
:103198006B6F7D516725D96E000E6821DA6E6B5111
:1031A800DF1A7D2B0F0E7D65ECD7000E7D6F7D51EC
:1031B8006725D96E000E6821DA6EDF506B6F6C6B75
:1031C800070E6B25F66EFE0E6C21F76EF86A000E80
:1031D800F8227D516725D96E000E6821DA6E080045
:1031E800F5CFDFFF7D2B0F0E7D65E1D767C060F05F
:1031F80068C061F009EC28F04304D8B419D1000E76
:1032080000017D6F7D5167256B6F000E68216C6F23
:10321800010E6B25D96E000E6C21DA6EDF506D6FD2
:103228007D516725D96E000E6821DA6EDF506D1961
:103238007B6F7D5167256B6F000E68216C6F030EE5
:103248006B25D96E000E6C21DA6EDF506D6F7D51E3
:1032580067256E6F000E68216F6F020E6E25D96E9E
:10326800000E6F21DA6EDF506D197C6F7B517C196F
:10327800796F7D5167256B6F000E68216C6F010EA9
:103288006B25D96E000E6C21DA6EDF506D6F7D51A3
:1032980067256E6F000E68216F6F020E6E25D96E5E
:1032A800000E6F21DA6EDF506D197A6F7F0E7B6525
:1032B8000CD01B0E7BC06BF06C6BD8906B376C37E7
:1032C8006B19736F6C51746F05D0D8907B35736F21
:1032D800746B743773C07BF07F0E7A650CD01B0E4D
:1032E8007AC06BF06C6BD8906B376C376B19756F55
:1032F8006C51766F05D0D8907A35756F766B7637C6
:1033080075C07AF07F0E7C650CD01B0E7CC06BF00C
:103318006C6BD8906B376C376B19776F6C51786F13
:1033280005D0D8907C35776F786B783777C07CF08C
:103338007D516725D96E000E6821DA6E7D516725AB
:10334800E96E000E6821EA6EEF5079197B19DF6E7D
:103358007D5167256B6F000E68216C6F010E6B2520
:10336800D96E000E6C21DA6E7D5167256D6F000EE7
:1033780068216E6F010E6D25E96E000E6E21EA6EF2
:10338800EF5079197A19DF6E7D5167256B6F000E42
:1033980068216C6F020E6B25D96E000E6C21DA6EF7
:1033A8007D5167256D6F000E68216E6F020E6D25C9
:1033B800E96E000E6E21EA6EEF5079197C19DF6E06
:1033C8007D5167256B6F000E68216C6F030E6B25AE
:1033D800D96E000E6C21DA6E7D5167256D6F000E77
:1033E80068216E6F020E6D25E96E000E6E21EA6E81
:1033F800EF506F6F7D516725706F000E6821716FF8
:10340800010E7025E96E000E7121EA6EEF50726FA1
:103418007D516725E96E000E6821EA6EEF5072193A
:103428006F197919DF6E040E7D270F0E7D65EAD6B8
:1034380069C060F06AC061F03EEC1AF0000E00014D
:103448007D6F7D516925D96E000E6A21DA6EDF50D5
:103458006B6F7D516725D96E000E6821DA6E6B514E
:10346800DF1A7D2B0F0E7D65ECD743064350D8B489
:1034780012009BD6000120EE0DF06051D926615153
:10348800DA22DF50626F636B070E6225F66EFE0E5E
:103498006321F76EF86A000EF8220800F5CF64F091
:1034A80060C0D9FF61C0DAFF6451DF1A20EE0EF068
:1034B8006051D9266151DA22DF50626F636B070EC3
:1034C8006225F66EFE0E6321F76EF86A000EF8228A
:1034D8000800F5CF64F020EE01F06051D926615163
:1034E800DA226451DF1A20EE0FF06051D9266151BB
:1034F800DA22DF50626F636B070E6225F66EFE0EEE
:103508006321F76EF86A000EF8220800F5CF64F020
:1035180020EE02F06051D9266151DA226451DF1A97
:1035280020EE0CF06051D9266151DA22DF50626F2B
:10353800636B070E6225F66EFE0E6321F76EF86A5E
:10354800000EF8220800F5CF64F020EE03F0605179
:10355800D9266151DA226451DF1A60C0D9FF61C0EF
:10356800DAFF4250DF1A7F0E42640CD01B0E42C0B5
:1035780062F0636BD890623763376219656F635185
:10358800666F05D0D8904234656F666B663765C044
:1035980042F060C0D9FF61C0DAFFDF50626F20EEF1
:1035A80004F06051D9266151DA226251DF1A20EE07
:1035B80001F06051D9266151DA22DF50626F20EEA6
:1035C80005F06051D9266151DA226251DF1A20EEE6
:1035D80002F06051D9266151DA22DF50626F20EE85
:1035E80006F06051D9266151DA226251DF1A20EEC5
:1035F80003F06051D9266151DA22DF50626F20EE64
:1036080007F06051D9266151DA226251DF1A20EEA3
:1036180004F06051D9266151DA22DF50626F20EE42
:1036280008F06051D9266151DA226251DF1A20EE82
:1036380005F06051D9266151DA22DF50626F20EE21
:1036480009F06051D9266151DA226251DF1A20EE61
:1036580006F06051D9266151DA22DF50626F20EE00
:103668000AF06051D9266151DA226251DF1A20EE40
:1036780007F06051D9266151DA22DF50626F20EEDF
:103688000BF06051D9266151DA226251DF1A20EE1F
:1036980008F06051D9266151DA22DF50626F20EEBE
:1036A8000CF06051D9266151DA226251DF1A20EEFE
:1036B80009F06051D9266151DA22DF50626F20EE9D
:1036C8000DF06051D9266151DA226251DF1A20EEDD
:1036D8000AF06051D9266151DA22DF50626F20EE7C
:1036E8000EF06051D9266151DA226251DF1A20EEBC
:1036F8000BF06051D9266151DA22DF50626F20EE5B
:103708000FF06051D9266151DA226251DF1A120096
:103718000001A051800BAD6FA051A025B46F9FBFD1
:10372800B481B451D8B40DD0B429D8A408D0000EAF
:103738009D6F000E9E6F000E9F6F000EA06F9F8FF3
:1037480006D0000E9D6F000E9E6F000E9F6F000E3C
:10375800A06FA451800BAD1BA451A425B56FA3BFC6
:10376800B581B551D8B40DD0B529D8A408D0000E6C
:10377800A16F000EA26F000EA36F000EA46FA38F9F
:1037880006D0000EA16F000EA26F000EA36F000EF0
:10379800A46FA151A211A311A411D8A417D0000E8F
:1037A8009D6F000E9E6F000E9F6F000EA06F800E23
:1037B8009F137F0EA013AD51A0139DC09DF09EC016
:1037C8009EF09FC09FF0A0C0A0F01200B451D8A4F2
:1037D80009D0000E9D6F000E9E6F000E9F6F000EA9
:1037E800A06F1200B551B4C0A5F0A66BA55F000E7E
:1037F800A65B7F0EA525AE6F000EA621AF6F9DC0FC
:10380800A9F09EC0AAF09FC0ABF0A0C0ACF0000E1B
:103818009D6F000E9E6F000E9F6F000EA06F000E32
:10382800B06F000EB16F000EB26F000EB36F000ED6
:10383800B56F28D0B551D8B411D0D890A937AA37C8
:10384800AB37AC37D8909D379E379F37A037B3BF7B
:103858009D81D890B037B137B237B337A151A95D40
:10386800A251AA59A351AB59A451AC59D8A009D017
:10387800B38DA151A95FA251AA5BA351AB5BA4511F
:10388800AC5BB52B190EB565D5D7A951AA11AB11EB
:10389800AC11D8B411D0B0810FD0D8909D379E37D5
:1038A8009F37A037B3BF9D81D890B037B137B237B3
:1038B800B337AE07D8A0AF079FAFEFD7000EB56FED
:1038C800B3AF17D0FF0EB015A56FFF0EB115A66FD9
:1038D800FF0EB215A76F7F0EB315A86FA551A611DD
:1038E800A711A811D8B403D0010EB56F02D09DB1AD
:1038F800FBD7B551D8B41FD0010E9D27000E9E23CB
:103908009F23A023A0A117D09DC0A5F09EC0A6F01C
:103918009FC0A7F0A0C0A8F0A835A833A733A63346
:10392800A533A5C09DF0A6C09EF0A7C09FF0A8C073
:10393800A0F0AE4BAF2BAFBF10D0AF5103E1AE2913
:10394800D8A00BD0000EAF6FAE69000E9D6F000EB1
:103958009E6F000E9F6F000EA06FAFBF05D0AF51D6
:1039680011E1AE05D8B00ED0000EAF6F000EAE6FED
:10397800000E9D6F000E9E6F000E9F6F000EA06FD1
:10398800000EAD6FAEC0B4F0B4A102D09F8F01D0CD
:103998009F9FD890B431A06F0ED7A00E0001606F22
:1039A800030E616F000E626F050E636F000E656F88
:1039B8000A0E646FECEC47F0000E0101F86F000E80
:1039C8000001606F160E18EC37F0000E0001606FF2
:1039D800040E18EC37F0000E0001606F000E18ECB2
:1039E80037F0000E0001616F010E606F24EC4DF09E
:1039F800E1EC50F0A00E0001606F030E616FF50E50
:103A0800626FFF0E636F000E656F010E646F54ECFA
:103A180042F0A00E0001606F030E616F6F0E626FBF
:103A2800010E636FF9C164F0656B54EC42F001015B
:103A3800F929F827000E0001606F040E18EC37F022
:103A4800010E0001606F000E18EC37F0000E000147
:103A5800616F010E606F24EC4DF0E1EC50F0A00EA8
:103A68000001606F030E616FF70E626FFF0E636FE8
:103A7800000E656F010E646F54EC42F0A00E000159
:103A8800606F030E616F6F0E626F010E636FF9C195
:103A980064F0656B54EC42F00101F929F827010E36
:103AA8000001606F040E18EC37F0000E0001606F23
:103AB800000E18EC37F0010E0101236F000E000113
:103AC800616F0A0E606F24EC4DF01CEC48F0A00EFC
:103AD8000001606F030E616FFD0E626FFF0E636F72
:103AE800000E656F010E646F54EC42F0A00E0001E9
:103AF800606F030E616F6F0E626F010E636FF9C125
:103B080064F0656B54EC42F00101F929F827F1ECF7
:103B18004AF0A00E0001606F030E616FFB0E626F2A
:103B2800FF0E636F000E656F010E646F54EC42F078
:103B3800A00E0001606F030E616F6F0E626F010EC1
:103B4800636FF9C164F0656B54EC42F00101F92927
:103B5800F827FCEC4DF0A00E0001606F030E616FBA
:103B6800F90E626FFF0E636F000E656F010E646FD2
:103B780054EC42F0A00E0001606F030E616F6F0EEF
:103B8800626F010E636FF9C164F0656B54EC42F02B
:103B98000101F929F827010E0001606F160E18ECD3
:103BA80037F04EEC53F060C006F161C007F162C017
:103BB80008F163C009F159EC47F006C160F007C18C
:103BC80061F008C162F009C163F045EC53F059ECAB
:103BD80047F0120001014CA506D0800E0001AA6F23
:103BE800030EA96F12004CC1ABF0030E0001AB1716
:103BF800D8B405D0800EAA6F040EA96F1200A9517F
:103C0800AA11D8A407D0000E9F6F040E9E6F6BEC0C
:103C180009F006D0A9C09EF0AAC09FF06BEC09F08D
:103C280001014105D8A413D0010E0001626F220ED4
:103C3800C5EC51F0000E0001626F400EC5EC51F06A
:103C4800000E0001626F410EC5EC51F016D05DC147
:103C580062F0120EC5EC51F05EC162F0130EC5ECB5
:103C680051F0000E0001626F400EC5EC51F0000EDD
:103C78000001626F410EC5EC51F001014C83E70E63
:103C88004C170001A951AA11D8A408D041C165F068
:103C9800000E666F050E1CEC36F046D0010141059A
:103CA800D8A409D0010E0001656F000E666F060EDC
:103CB8001CEC36F039D0000E0001656F000E666FFF
:103CC800050E1CEC36F00001A951AB6FAA51AC6F80
:103CD800AD6BAE6B0C0ED890AB37AC37AD37AE379B
:103CE800E82EF9D7ABC060F0ACC061F0ADC062F0AF
:103CF800AEC063F07D0E646F000E656F000E666FD8
:103D0800000E676F96EC42F060C06DF061C06EF017
:103D180062C06FF063C070F0010151517FEC4CF04C
:103D28000101515173EC40F00101535154115511E7
:103D38005611D8B461D0565107E15329FF0E545992
:103D48000F0E5559D8A01DD053C160F054C161F071
:103D580055C162F056C163F07D0E0001646F000E1C
:103D6800656F000E666F000E676F96EC42F00C0EE2
:103D7800D89000016037613762376337E82EF8D78B
:103D880023D053C1ABF054C1ACF055C1ADF056C10E
:103D9800AEF00C0ED8900001AB37AC37AD37AE376C
:103DA800E82EF8D7ABC060F0ACC061F0ADC062F0EF
:103DB800AEC063F07D0E646F000E656F000E666F17
:103DC800000E676F96EC42F060C0AFF061C0B0F0D3
:103DD80062C0B1F063C0B2F0AFC06DF0B0C06EF0B9
:103DE800B1C06FF0B2C070F0010152517FEC4CF0DD
:103DF8000101525173EC40F0000E0001AA6F000E51
:103E0800A96F120001014CA506D0800E0001AA6F0F
:103E1800030EA96F12004CC1ACF0030E0001AC17E1
:103E2800D8B405D0800EAA6F040EA96F1200010144
:103E38004151D8A409D0400E0001AB6505D0800ED1
:103E4800AA6F020EA96F120001015051D5EC51F072
:103E5800000E00019F6F040E9E6F6BEC09F00101CC
:103E68004105D8A427D0ABC062F0220EC5EC51F0B2
:103E78000A0EF5EC50F00001B86FF00EB817B887CD
:103E8800B8C062F00A0EC5EC51F0400E0001626F36
:103E9800400EC5EC51F0000E0001626F410EC5ECFA
:103EA80051F041C165F0010E0001666F010E1CEC76
:103EB80036F00CD0000E0001626F400EC5EC51F0D8
:103EC800000E0001626F410EC5EC51F00101415135
:103ED800D8A405D0ABC062F0000EC5EC51F06CEC74
:103EE80054F0800EBBEC53F0000E0001B96F0BD0FC
:103EF800B951A925D96E000EAA21DA6EDF50BBECA4
:103F080053F00001B92BAB51B95DD8A0F1D76AECD9
:103F180054F001014C81E70E4C1741C165F0000EC9
:103F28000001666F030E1CEC36F0000E00016D6F89
:103F3800000E6E6F0A0E6F6F000E706F0101505108
:103F48007FEC4CF00101505173EC40F001015351EA
:103F5800541155115611D8B461D0565107E153295F
:103F6800FF0E54590F0E5559D8A01DD053C160F0FB
:103F780054C161F055C162F056C163F07D0E000175
:103F8800646F000E656F000E666F000E676F96EC2B
:103F980042F00C0ED8900001603761376237633702
:103FA800E82EF8D723D053C1ACF054C1ADF055C1B9
:103FB800AEF056C1AFF00C0ED8900001AC37AD375B
:103FC800AE37AF37E82EF8D7ACC060F0ADC061F0BF
:103FD800AEC062F0AFC063F07D0E646F000E656F17
:103FE800000E666F000E676F96EC42F060C0B4F08A
:103FF80061C0B5F062C0B6F063C0B7F0B4C06DF090
:10400800B5C06EF0B6C06FF0B7C070F00101525184
:104018007FEC4CF00101525173EC40F0000E0001AE
:10402800AA6F000EA96F12000001A46F210E0001F3
:10403800A419D8A41200030EA96F000EAA6F000ECF
:10404800A56F000EA66F000EA76F000EA86FA50E35
:10405800606F000E616FAA51030D9EC0A0F09FC053
:10406800A1F0F350A027F450A1230D0EA025626FF4
:10407800000EA121636F000E656F030E646FECECF8
:1040880047F0A5C092F0A6C093F0A7C094F0A8C0CE
:1040980095F0640E0001966F000E976F000E986FF2
:1040A800000E996FD6EC48F092C0A5F093C0A6F028
:1040B80094C0A7F095C0A8F00001A551A611A711BA
:1040C800A811D8B4ADD0A5C060F0A6C061F0A7C053
:1040D80062F0A8C063F0B4EC45F00009D8A4A6D0FB
:1040E8000001A9510E0DF3CFA0F0F4CFA1F0AA5111
:1040F8000E0D140EA26F040EA36FF350A227F450F6
:10410800A323A051A225D96EA151A321DA6EA5C07F
:10411800DEFFA6C0DEFFA7C0DEFFA8C0DEFFA951F4
:104128000E0DF3CFA0F0F4CFA1F0AA510E0D140E8E
:10413800A26F040EA36F050EA227000EA323F3504F
:10414800A227F450A323A051A225D96EA151A321DF
:10415800DA6E0401DF500F0B5009DF6E0001A95120
:104168000E0DF3CFA0F0F4CFA1F0AA510E0D140E4E
:10417800A26F040EA36F050EA227000EA323F3500F
:10418800A227F450A323A051A225D96EA151A3219F
:10419800DA6EF00E0401DF160001A9510E0DF3CFFF
:1041A800A0F0F4CFA1F0AA510E0D140EA26F040EC8
:1041B800A36F060EA227000EA323F350A227F450E4
:1041C800A323A051A225D96EA151A321DA6EE70E2F
:1041D800DE6E030EDD6EA9510E0DF3CFA0F0F4CF05
:1041E800A1F0AA510E0D140EA26F040EA36F0D0EAE
:1041F800A227000EA323F350A227F450A323A05113
:10420800A225D96EA151A321DA6EFF0EDF6E010E31
:10421800646FAA51A92583EC4DF00201088706D0E6
:10422800000E646FAA51A92583EC4DF00001AA2B5A
:10423800040EAA6504D7020108871200000E0001C7
:10424800AB6FA6C0ACF0A7C0ADF0E7D00201AC518F
:10425800020DAE0EF324D96E020EF420DA6EDF9052
:10426800AC51020DAE0EF324D96E020EF420DA6EB4
:10427800DF92AC51020DAE0EF324D96E020EF4207B
:10428800DA6EDF94AC51020DAE0EF324D96E020E35
:10429800F420DA6EDF96AC51020DAE0EF324D96E1F
:1042A800020EF420DA6EDF98AC51020DAE0EF32444
:1042B800D96E020EF420DA6EDF9AAC51020DAE0E02
:1042C800F324D96E020EF420DA6EDF9CAC51020D95
:1042D800AE0EF324D96E020EF420DA6EDF9EACC067
:1042E800D9FFADC0DAFFAC51020DAD0EF324E96E73
:1042F800020EF420EA6EDFCFEFFF61D0ACC060F0B1
:10430800ADC061F066EC4EF060C0ACF061C0ADF0DD
:104318000201AC51020DAD0EF324D96E020EF42049
:10432800DA6EFF0EDF6E69D0ACC06FF0ADC070F012
:1043380002EC24F06FC0ACF070C0ADF05ED0ACC041
:1043480060F0ADC061F02DEC49F060C0ACF061C028
:10435800ADF053D0ACC09EF0ADC09FF06AEC29F030
:104368009EC0ACF09FC0ADF048D0ACC060F0ADC00E
:1043780061F0D8EC53F060C0ACF061C0ADF03DD056
:10438800ACC09EF0ADC09FF026EC22F09EC0ACF011
:104398009FC0ADF032D0ACC067F0ADC068F0B9ECEA
:1043A80050F067C0ACF068C0ADF027D0010EAB6F1D
:1043B800A851A625AC6F000EA721AD6FA9D7ACC038
:1043C800D9FFADC0DAFF0001AC4BAD2BDF50020ABC
:1043D800D8B494D7010AD8B4A7D7070AD8B4AFD7A6
:1043E800010AD8B4B7D7030AD8B4BFD7010AD8B4DA
:1043F800C7D70F0AD8B4CFD7D9D70201AC51020D0D
:10440800AD0EF324D96E020EF420DA6EDE28D8B48D
:1044180004D0100EAC6101D0AC2B0001A851A62528
:10442800A96F000EA721AA6FA951AC5DAA51AD5979
:10443800D8B003D0AB51D8B409D7ACC0A6F0ADC042
:10444800A7F012009EC0D9FF9FC0DAFFDF5000011D
:10445800A56F9E4B9F2B9EC0D9FF9FC0DAFFFF0E12
:10446800DE14A16FFF0EDE14A26FFF0EDE14A36F21
:10447800000EDE14A46FA1C092F0A2C093F0A3C0F6
:1044880094F0A4C095F0640E966F000E976F000E1E
:10449800986F000E996FD6EC48F092C0A1F093C0C7
:1044A800A2F094C0A3F095C0A4F0030E00019E25CD
:1044B8009E6F000E9F219F6F9EC0D9FF9FC0DAFF9D
:1044C800DF50A06F9E4B9F2B000E606FA5511CEC18
:1044D80051F00009D8A42FD0A1C060F0A2C061F0AB
:1044E800A3C062F0A4C063F0B4EC45F00009D8B4EE
:1044F80007D00001A151A211A311A411D8A40AD078
:104508000201AC51020DAE0EF324D96E020EF42056
:10451800DA6EDF8E0001A051F4EC4BF00009D8A44C
:104528000AD00201AC51020DAE0EF324D96E020E70
:10453800F420DA6EDF8C0201AC51020DAE0EF324CA
:10454800D96E020EF420DA6EDFAE6DD0AC51020DDA
:10455800AE0EF324D96E020EF420DA6EDFAC63D00F
:10456800100EDF612DD00001A151A211A311A411D9
:10457800D8B420D0A1C060F0A2C061F0A3C062F09E
:10458800A4C063F0A551DEEC4DF0A0C060F00001BE
:10459800A5518FEC32F0010E0001616F2E0E606F95
:1045A800A55132EC4EF0010E0001606FA551E8EC08
:1045B80030F037D0000E646FA55183EC4DF031D048
:1045C8000001A151A211A311A411D8B424D0A1C0F3
:1045D80060F0A2C061F0A3C062F0A4C063F0A5516E
:1045E800100FDEEC4DF0A0C060F00001A551100FD7
:1045F8008FEC32F0010E0001616F2E0E606FA55135
:10460800100F32EC4EF0010E0001606FA551100F33
:10461800E8EC30F006D0000E646FA551100F83EC63
:104628004DF0020108879EC09EF09FC09FF01200C7
:104638000001A96F0201F505D8B4FEEC49F0340E6B
:104648000201F96FF9512DEC54F0000E0201076FC9
:10465800000E086F000E096F000E0A6FE269000E67
:10466800E36F000ECD6F000ECE6F000ECF6F000E01
:10467800D06F000EDA6F000ED96F000E0F6F000EAC
:10468800106F000E116F000E126F000E0B6F000EF0
:104698000C6F000E0D6F000E0E6F000ED86F000E1F
:1046A800D76F000EE16F010EE06F000ED66F000E9F
:1046B800D56F000EF36F000EF46F000ECD6F000E75
:1046C800CE6F000ECF6F000ED06F0895000E076FEB
:1046D800000E086F000E096F000E0A6F000E066FBD
:1046E800000E056F070EDC6F000EDB6F010EDE6F2C
:1046F800010EDD6FE569A9C0A9F2000E176F100E53
:10470800F26F0001A951D8A41BD0D70E796F070EFC
:104718007A6FA00E7B6F270E7C6FBE0E7D6F330EF7
:104728007E6FE7EC24F0C7EC44F0000E0201216F25
:10473800080E1D6FE60E1E6FD30E1F6F330E1AD0B4
:10474800D70E796F070E7A6F200E7B6FA20E7C6FE3
:10475800D30E7D6F190E7E6FE7EC24F003EC45F065
:10476800000E0201216F280E1D6F760E1E6FE80ED7
:104778001F6F190E206F010EE66F000EE46F95ECA7
:104788003BF0000E0201AB6F000EAA6F220E000173
:10479800606F020E616F000E636F000E626F000E95
:1047A800656F690E646FCAEC4FF0030E02019A6FD1
:1047B800E80E996F070E9C6FD00E9B6F130E9E6FBD
:1047C800880E9D6F170EA06F700E9F6F070EA66F55
:1047D800D00EA56F200EA86F400EA76F400EA26FD7
:1047E800000EA16F400EA46F000EA36F000E000113
:1047F8009F6F000E9E6FBBEC28F012006FC0D9FFB0
:1048080070C0DAFFDF500F0B0001746F6FC0D9FF63
:1048180070C0DAFFDF50716F71390F0B0F0B776FB4
:104828006F4B702B6FC0D9FF70C0DAFFDECF72F00C
:10483800DDCF73F0020E6F256F6F000E7021706F61
:104848006FC075F070C076F06F4B702B020107AD2A
:104858009AD075C0D9FF76C0DAFF0001DF38070BA0
:10486800A5EC51F00009D8A413D072C060F073C051
:1048780061F064EC4BF00009D8A40AD00201AC51F5
:10488800020DAE0EF324D96E020EF420DA6EDF802C
:104898000001775106EC53F00009D8A414D00201A6
:1048A800F0510001775DD8A00ED077510201F15D7B
:1048B800D8A009D0AC51020DAE0EF324D96E020E69
:1048C800F420DA6EDF820001745151EC50F00009D7
:1048D800D8A40AD00201AC51020DAE0EF324D96E51
:1048E800020EF420DA6EDF840201AC51020DAE0E26
:1048F800F324D96E020EF420DA6EDFA45FD0AC5137
:10490800020DAE0EF324D96E020EF420DA6EDFA289
:1049180055D0AC51020DAE0EF324D96E020EF42020
:10492800DA6EDFA04BD072C06CF073C06DF075C04A
:10493800D9FF76C0DAFF0001DF38070B6E6FA9ECEC
:1049480052F000017451CEEC53F0020108890001C5
:104958007751D3EC53F075C0D9FF76C0DAFF000168
:10496800DF500F0B0009D8A402D0000E08D075C084
:10497800D9FF76C0DAFFDF500F0B716F71050201A6
:10498800DB6F088B1BD0AC51020DAE0EF324D96E31
:10499800020EF420DA6EDF90AC51020DAE0EF32455
:1049A800D96E020EF420DA6EDF92AC51020DAE0E13
:1049B800F324D96E020EF420DA6EDF946FC06FF024
:1049C80070C070F012007BC029F17CC02AF17DC054
:1049D8002BF17EC02CF1A80E01012D6F610E2E6FF8
:1049E800000E2F6F000E306F500E316FC30E326FF6
:1049F800000E336F000E346F010E416F070E436FC8
:104A0800010E446F010E4A6F000E4B6F000E366F99
:104A1800080E356F0C0E426F010E456F000E466F83
:104A2800000E496FC10E386F940E396FC10E3A6F80
:104A3800030E406F340E376F000E4C6F000E4D6F33
:104A480079C04EF17AC04FF1000E486F000E476FE3
:104A5800800E5B6F980E536F3A0E546F000E556FB1
:104A6800000E566F020E5C6F0B0E5D6F120E5E6FBE
:104A7800000E586F000E596F5751D8A426D03FEC3E
:104A880045F00101506F3FEC45F00101516F3FECDB
:104A980045F00101526F440E0001606F9B0E616F7B
:104AA800000E626F010151514CEC4EF0A20E000154
:104AB800606F970E616F000E626F010152514CECEE
:104AC8004EF0010E0101576F0BD05051D5EC51F04B
:104AD80001015151D5EC51F001015251D5EC51F081
:104AE8003AEC4CF0000E0001656F010E666F010E86
:104AF8001CEC36F029C16DF02AC16EF02BC16FF0A5
:104B08002CC170F08BEC38F0420E0001626F3B0E46
:104B1800C5EC51F03B0EF5EC50F000017F6F7FBB08
:104B2800F9D7230E626F0C0EC5EC51F01E0E000172
:104B3800626F0D0EC5EC51F0AA0E0001626F1F0ED8
:104B4800C5EC51F08F0E0001626F350EC5EC51F0C7
:104B5800FF0E0001626F320EC5EC51F0400E0001ED
:104B6800626F310EC5EC51F0010E0001656F010E48
:104B7800666F000E1CEC36F0FF0E0001626F230E0C
:104B8800C5EC51F0420EF5EC50F001015A6F1200DD
:104B98000001B0AF0FD0000E0101176F210E166F84
:104BA800000E0001AD6F000EAE6F000EAF6F000E6D
:104BB800B06F1200ADC060F0AEC061F0AFC062F07F
:104BC800B0C063F0000E646F000E656F000E666F74
:104BD800000E676FBAEC40F00001D8A00FD0000EAD
:104BE8000101176F220E166F000E0001AD6F000E47
:104BF800AE6F000EAF6F000EB06F1200000E886F20
:104C0800000E896F000E8A6F400E8B6FB10E706FA9
:104C1800000E716FADC06CF0AEC06DF0AFC06EF03D
:104C2800B0C06FF036EC3EF06CC084F06DC085F01B
:104C38006EC086F06FC087F05BEC0FF084C074F034
:104C480085C075F086C076F087C077F0000E000149
:104C5800786F000E796F800E7A6FBF0E7B6F34EC21
:104C680014F074C0ADF075C0AEF076C0AFF077C088
:104C7800B0F00001B107D8A0B207ADC09DF0AEC03A
:104C88009EF0AFC09FF0B0C0A0F0AA0EA16FFF0EBB
:104C9800A26F000EA46F080EA36F9EEC35F09DC0A6
:104CA800ADF09EC0AEF09FC0AFF0A0C0B0F0180E3F
:104CB8000001886F720E896F310E8A6F3F0E8B6FFD
:104CC800B1C060F0B2C061F0000E61BFFF0E626F4C
:104CD800636F010E16EC2CF060C084F061C085F0A3
:104CE80062C086F063C087F05BEC0FF084C074F09C
:104CF80085C075F086C076F087C077F0ADC078F0D3
:104D0800AEC079F0AFC07AF0B0C07BF034EC14F0EC
:104D180074C0ADF075C0AEF076C0AFF077C0B0F03B
:104D28001200000E0001A66F000EA76F94C060F07D
:104D3800616B000E636F100E626FCEEC41F00001E4
:104D48006051A56F010EA66F54D096C06BF097C046
:104D58006CF098C06DF099C06EF0A6C06FF0010EAF
:104D6800706F9FC071F09551C7EC3AF05F0E00016B
:104D78007E6F010E7F6F9AC080F09BC081F017ECA8
:104D88004EF0000E0001A76F9C519D25D96E000EB4
:104D98009E21DA6EA651A06FA16BA03BA13BF00E3D
:104DA800A117A0510F0BA113F00EA01792C0A2F0EB
:104DB80093C0A3F0A051A227A151A323A751A227D2
:104DC800000EA323F00EA225E96EFF0EA321EA6EC2
:104DD800EF50A46F5F0EA725E96EEA6A010EEA227A
:104DE800EF50A419DF6E9C2BA72B0F0EA765CCD70D
:104DF800A62BA651A55DD8B0A8D794C0A0F00F0ED9
:104E0800A017D8B4120096C06BF097C06CF098C089
:104E18006DF099C06EF0A6C06FF0010E706F9FC064
:104E280071F09551C7EC3AF05F0E00017E6F010EEC
:104E38007F6F9AC080F09BC081F017EC4EF0000E97
:104E48000001A76F23D09C519D25D96E000E9E218D
:104E5800DA6EA551100D92C0A0F093C0A1F0F350E6
:104E6800A027F450A123A751A025E96E000EA12187
:104E7800EA6EEF50A26F5F0EA725E96EEA6A010E8F
:104E8800EA22EF50A219DF6E9C2BA72B94C0A0F04A
:104E98000F0EA017A051A75DD8B01200D4D7050EE9
:104EA800E126000EE222020108A108A52CD0FF0E7F
:104EB800E36A0FD0FF0EE350020DAD0EF324D96E56
:104EC800020EF420DA6E020EDE18D8B409D0FF0EF6
:104ED800E32AFF0EE3CF46F0AC51465CD8A0EAD7F0
:104EE800FF0EE350AC19D8A40ED0AC51020DAD0E94
:104EF800F324D96E020EF420DA6E020EDF6E100E65
:104F0800AC6101D0AC2B08A57BD0D45107E1D129E5
:104F1800FF0ED2590F0ED359D8A024D0D1C260F0B9
:104F2800D2C261F0D3C262F0D4C263F07D0E000138
:104F3800646F000E656F000E666F000E676F96EC6B
:104F480042F060C04EF061C04FF062C050F063C0E4
:104F580051F00C0ED8904E364F3650365136E82E5A
:104F6800F9D72BD0D1C24EF0D2C24FF0D3C250F0F5
:104F7800D4C251F00C0ED8904E364F3650365136BA
:104F8800E82EF9D74EC060F04FC061F050C062F013
:104F980051C063F07D0E0001646F000E656F000E56
:104FA800666F000E676F96EC42F060C04EF061C00D
:104FB8004FF062C050F063C051F0FB0E4EC0E3FFEB
:104FC800FC0E4FC0E3FFFD0E50C0E3FFFE0E51C0C4
:104FD800E3FFE150FB0FD96EE250DA6EFF0EDA22E2
:104FE800DECF6DF0DECF6EF0DECF6FF0DECF70F08B
:104FF8000201EC517FEC4CF00201EC5173EC40F0F3
:10500800FA0EE126FF0EE2221200000120EE01F066
:105018006051D9266151DA22DF50626F20EE05F027
:105028006051D9266151DA2200EE01F06051E9267B
:105038006151EA22DFCFEFFF20EE09F06051D92657
:105048006151DA2200EE05F06051E9266151EA2249
:10505800DFCFEFFF20EE0DF06051D9266151DA2243
:1050680000EE09F06051E9266151EA22DFCFEFFF37
:1050780020EE0DF06051D9266151DA2262C0DFFFBF
:1050880020EE02F06051D9266151DA22DF50626FBA
:1050980020EE0AF06051D9266151DA2200EE02F0C2
:1050A8006051E9266151EA22DFCFEFFF20EE0AF0D6
:1050B8006051D9266151DA2262C0DFFF20EE0EF07E
:1050C8006051D9266151DA22DF50626F20EE06F076
:1050D8006051D9266151DA2200EE0EF06051E926BE
:1050E8006151EA22DFCFEFFF20EE06F06051D926AA
:1050F8006151DA2262C0DFFF20EE03F06051D92649
:105108006151DA22DF50626F20EE0FF06051D9262C
:105118006151DA2200EE03F06051E9266151EA227A
:10512800DFCFEFFF20EE0BF06051D9266151DA2274
:1051380000EE0FF06051E9266151EA22DFCFEFFF60
:1051480020EE07F06051D9266151DA2200EE0BF00B
:105158006051E9266151EA22DFCFEFFF20EE07F028
:105168006051D9266151DA2262C0DFFF12009EC069
:1051780092F09FC093F00001946B956BE80E966FC8
:10518800030E976F000E986F000E996FD6EC48F0DB
:1051980092C0D1F293C0D2F294C0D3F295C0D4F2A7
:1051A80000019E519F11D8A42BD00201EC51D5ECDF
:1051B80051F002010895000E0001A86F1AD0A851FD
:1051C800020DAD0EF324D96E020EF420DA6E020E33
:1051D800DE18D8A40CD0A851020DAD0EF324D96E58
:1051E800020EF420DA6EFF0EDF6E0201AC0700013A
:1051F800A82B0201AC510001A85DD8B01200DFD77E
:105208000201088507A91200D45107E1D129FF0E30
:10521800D2590F0ED359D8A01DD0D1C260F0D2C236
:1052280061F0D3C262F0D4C263F07D0E0001646FF6
:10523800000E656F000E666F000E676F96EC42F009
:105248000C0ED89000016037613762376337E82E5B
:10525800F8D723D0D1C2A0F0D2C2A1F0D3C2A2F015
:10526800D4C2A3F00C0ED8900001A037A137A23702
:10527800A337E82EF8D7A0C060F0A1C061F0A2C0A3
:1052880062F0A3C063F07D0E646F000E656F000EC0
:10529800666F000E676F96EC42F060C0A4F061C0C4
:1052A800A5F062C0A6F063C0A7F0A4C06DF0A5C0C9
:1052B8006EF0A6C06FF0A7C070F00201EC517FEC51
:1052C8004CF00201EC5173EC40F012009EC0D9FF83
:1052D8009FC0DAFFDF500001A46F9E4B9F2B9EC03A
:1052E800D9FF9FC0DAFFFF0EDE14A06FFF0EDE1499
:1052F800A16FFF0EDE14A26F000EDE14A36FA0C014
:1053080092F0A1C093F0A2C094F0A3C095F0640EEF
:10531800966F000E976F000E986F000E996FD6EC7F
:1053280048F092C0A0F093C0A1F094C0A2F095C03C
:10533800A3F0030E00019E259E6F000E9F219F6F14
:10534800A0C060F0A1C061F0A2C062F0A3C063F089
:10535800B4EC45F00009D8A40AD00201AC51020D02
:10536800AE0EF324D96E020EF420DA6EDF86000149
:10537800A4510F0B06EC53F00009D8A40AD002017F
:10538800AC51020DAE0EF324D96E020EF420DA6E83
:10539800DF880001A439070BFAEC52F00009D8A401
:1053A8000AD00201AC51020DAE0EF324D96E020EE2
:1053B800F420DA6EDF8A0201AC51020DAE0EF3243E
:1053C800D96E020EF420DA6EDFA829D0AC51020D96
:1053D800AE0EF324D96E020EF420DA6EDFA61FD0CB
:1053E800AC51020DAE0EF324D96E020EF420DA6E23
:1053F800DFAA15D00001A439070B0201F46FA0C081
:1054080060F0A1C061F0A2C062F0A3C063F0000127
:10541800A4510F0B646F1EEC53F00201088F9EC05D
:105428009EF09FC09FF0120057EC4FF094EC2EF0C6
:10543800010E0001606F190E18EC37F0F28EF28C35
:10544800F40E0001AA6FA80EAB6F360EAC6FA50E56
:10545800AD6FBBEC47F0E00E00016B6F030E6C6F95
:105468009CEC4FF0C80E00016B6F030E6C6FB3EC31
:105478004FF0F00E00016B6F030E6C6F85EC4FF070
:10548800000EEAEC3EF0D38E5CEC54F00FEC50F0DA
:10549800010E0101246F64EC4DF095EC51F0000908
:1054A800D8B443D001010451D8A403D02451D8B4AE
:1054B8003CD0000E0001606F110E18EC37F0000EA2
:1054C8000001606F190E18EC37F0000E0101246F0F
:1054D80060EC53F0D1EC1CF03CEC54F0000E0001F1
:1054E800606F010E9AEC36F0000E0001606F020E3C
:1054F8009AEC36F0000E0001606F030E9AEC36F05D
:10550800000E0001606F010E18EC37F0000E00016C
:10551800606F020E18EC37F0000E0001606F030E8A
:1055280018EC37F00FEC50F028D00F0E010102658F
:1055380024D095EC51F00009D8A41FD0000E1CEC23
:1055480023F0E00E00016B6F030E6C6F9CEC4FF0C4
:10555800C80E00016B6F030E6C6FB3EC4FF0F00ECA
:1055680000016B6F030E6C6F85EC4FF0000EEAECD8
:105578003EF0110E8CEC3FF0D5D7030000F000F0A0
:105588008AD700019669976998699969000E9A6F98
:1055980064D000019A510E0D180EF324D96E040E32
:1055A800F420DA6EDE04D8A456D09A510E0D1C0EE3
:1055B800F324D96E040EF420DA6EDE50DE10DE100D
:1055C800DE10D8B448D09A510E0D1C0EF324D96EB3
:1055D800040EF420DA6EDE50965DDE509759DE50E8
:1055E8009859DE509959D8A036D09A510E0D190EF7
:1055F800F324D96E040EF420DA6E0401DF500F0B89
:105608000001926F92510201E45DD8A024D00001FC
:105618009A510E0D190EF324D96E040EF420DA6E89
:105628000401DF380F0B0001926F0201E451000101
:10563800925DD8A010D09A510E0D1C0EF324D96E8D
:10564800040EF420DA6EDECF96F0DECF97F0DECFD0
:1056580098F0DECF99F000019A2B9A510201F25D81
:10566800D8B097D70751F00B0609076F96C092F08C
:1056780097C093F098C094F099C095F00C0ED8900C
:1056880000019237933794379537E82EF8D792C0B0
:1056980060F093C061F094C062F095C063F07D0E35
:1056A800646F000E656F000E666F000E676F96ECF4
:1056B80042F060C06DF061C06EF062C06FF063C010
:1056C80070F00201EB517FEC4CF00201EB5173ECEE
:1056D80040F01200000E0001D96FB80E606F060E80
:1056E800616F000E636F000E626F010E656F0F0E23
:1056F800646FCAEC4FF01F0E0001D717FC0ED717C6
:10570800E30ED71726EEB8F0D7C0DFFFD92B000E6F
:10571800D86FD8515E08D96E000ED8A0E82A0208C2
:10572800DA6EB80ED16F060ED26FD951D127000E9E
:10573800D223D851D125E96E000ED221EA6EDFCFEF
:10574800EFFFD82B070ED865E4D7D951080FD96FCA
:10575800000ED86FD8516608D96E000ED8A0E82A76
:105768000208DA6EB80ED16F060ED26FD951D12762
:10577800000ED223D851D125E96E000ED221EA6E4F
:10578800DFCFEFFFD82B070ED865E4D7D951080F24
:10579800D96FFF0EA66FA56973EC51F0A5C0D7F2BB
:1057A800A6C0D8F2B80E0001D925606F616B060E4D
:1057B8006123D70E626F020E636F000E656F020ED3
:1057C800646FECEC47F00001D951020FD96F470E16
:1057D800C86F020EC96FB80ECA6F060ECB6FD9C05C
:1057E800CCF08AEC47F0C8C0D3F0C9C0D4F0CAC026
:1057F800D5F0CBC0D6F0B80E0001D925606F616B2B
:10580800060E6123D30E626F000E636F000E656F84
:10581800040E646FECEC47F00001D951040FD96F06
:10582800D95112000001686F00016851D8A463AF14
:105838001AD060C064F061C065F062C066F063C0F1
:1058480067F0641F651F661F671F642B000E6523C2
:105858006623672364C06AF065C06BF066C06CF0AD
:1058680067C06DF008D060C06AF061C06BF062C0BC
:105878006CF063C06DF06051611162116311D8A4BE
:1058880009D0000E606F000E616F000E626F000E8F
:10589800636F1200960E696F06D0692BD8906D332E
:1058A8006C336B336A33000E6A15646F000E6B1528
:1058B800656F000E6C15666FFE0E6D15676F64518F
:1058C800651166116711D8B40DD0E7D7692B010EA1
:1058D8006A27000E6B236C236D23D8906D336C33CD
:1058E8006B336A33000E6A15646F000E6B15656FB3
:1058F800000E6C15666FFF0E6D15676F64516511AC
:1059080066116711D8B407D0E1D76907D8906A370C
:105918006B376C376D376CBF03D0020E6961F5D7F2
:1059280069A16C9FD890693369C064F0656B666B38
:10593800676B64C067F0666B656B646B64516A1370
:1059480065516B1366516C1367516D136851D8A478
:1059580063AF01D06D8F6AC060F06BC061F06CC03E
:1059680062F06DC063F01200000120EE04F0A75150
:10597800D926A851DA22A5C0A0F0A6C0A1F0000E31
:10598800A36F0A0EA26F5DEC4CF00001A051300F1E
:10599800DF6EA5C060F0A6C061F0000E636F0A0E4E
:1059A800626F81EC49F060C0A5F061C0A6F000010B
:1059B80020EE03F0A751D926A851DA22A5C0A0F0FD
:1059C800A6C0A1F0000EA36F0A0EA26F5DEC4CF00A
:1059D8000001A051300FDF6EA5C060F0A6C061F0D5
:1059E800000E636F0A0E626F81EC49F060C0A5F08B
:1059F80061C0A6F0000120EE02F0A751D926A851F7
:105A0800DA22A5C0A0F0A6C0A1F0000EA36F0A0E6E
:105A1800A26F5DEC4CF00001A051300FDF6EA5C005
:105A280060F0A6C061F0000E636F0A0E626F81EC31
:105A380049F060C0A5F061C0A6F0000120EE01F0B9
:105A4800A751D926A851DA22A5C0A0F0A6C0A1F076
:105A5800000EA36F0A0EA26F5DEC4CF00001A0517E
:105A6800300FDF6EA5C060F0A6C061F0000E636F56
:105A78000A0E626F81EC49F060C0A5F061C0A6F023
:105A8800A5C0A0F0A6C0A1F0000E0001A36F0A0EE9
:105A9800A26F5DEC4CF00001A051300FA7C0D9FFF8
:105AA800A8C0DAFFDF6E1200E652E652E652E6526E
:105AB800020105950789F00E0717D56BD66BF36BB6
:105AC80008A57BD0D45107E1D129FF0ED2590F0E7A
